:020000040800F2
:100000000004002047010008A50C0008A70C000808
:10001000AB0C0008AF0C0008B30C00080000000097
:10002000000000000000000000000000B70C000805
:10003000B90C000800000000BB0C0008BD0C000853
:1000400067010008670100086701000867010008F0
:1000500067010008670100086701000867010008E0
:1000600067010008670100086701000867010008D0
:1000700067010008670100086701000867010008C0
:1000800067010008670100086701000867010008B0
:1000900067010008670100086701000867010008A0
:1000A0006701000867010008670100086701000890
:1000B0006701000867010008670100086701000880
:1000C0006701000867010008670100086701000870
:1000D00067010008670100080D03000867010008B8
:1000E0006701000867010008670100086701000850
:1000F0006701000867010008670100086701000840
:10010000670100086701000867010008670100082F
:10011000670100086701000867010008670100081F
:10012000670100086701000867010008670100080F
:10013000DFF80CD001F000FC004800477501000812
:10014000F0020020704708488047084981F308887A
:1001500007480047FEE7FEE7FEE7FEE7FEE7FEE7AB
:10016000FEE7FEE7FEE7FEE745010008F00200209B
:100170003101000800BF01F0A3FB482000F02DF979
:100180004FF4A06001F0BCFA4FF4165000F071F883
:1001900000F040FD012000F088F9022000F085F910
:1001A000032000F082F94DE02748008800F4004069
:1001B000002847D000BF00F032FC24480078012816
:1001C0003DD10020214908705A21214801F0FFF952
:1001D00000BF40211E4801F051FA0128F9D15A21EF
:1001E0001B4801F0F4F900BF4021194801F046FA1C
:1001F0000128F9D16F21164801F0E9F900BF40212B
:10020000134801F03BFA0128F9D16B21104801F0A5
:10021000DEF900BF40210E4801F030FA0128F9D183
:100220000D210B4801F0D3F900BF4021084801F02F
:1002300025FA0128F9D10A21054801F0C8F9002062
:1002400001490880B0E700000800002000000020FD
:1002500000440040014600BF704700BF4A4A128870
:1002600002F04002002AF9D0C2B2474B1B1D1A808F
:10027000704710B586B004460121042001F024F82F
:100280000121480401F02DF80420ADF814000320EA
:100290008DF8160018208DF8170005A93B4800F0CE
:1002A00077FD0820ADF8140004208DF8170005A98B
:1002B000364800F06DFD26208DF8000003208DF8F3
:1002C00001008DF8020001208DF80300684601F05E
:1002D0001CFA01940020ADF80800ADF80A00ADF852
:1002E0000C00ADF810000C20ADF80E0001A9284854
:1002F00001F097F8012240F22551254801F00BF951
:100300000121234801F0FBF806B010BD10B540F202
:1003100025511F4801F0BEF910B31D4801F05BF9EB
:10032000C4B21C48008800F40040C8B919480088CD
:1003300000F4804060B10A2C03D0002015490880E9
:1003400020E01448008840F400401249088019E079
:100350000D2C06D10F48008840F480400D490880DC
:1003600010E00C480088C0F30D000B490C540948FC
:100370000088401C0749088008460088C72801DD1E
:100380000020088010BD0000003801400008014036
:100390000044004008000020240000202F49098864
:1003A0004143491E4FF0E022516101219161114604
:1003B000096941F00101116100BF4FF0E0210969B5
:1003C00001F480310029F8D04FF0E021096921F0D3
:1003D00001014FF0E022116170474FF0E0210969FF
:1003E00021F004014FF0E02211611146096921F06A
:1003F00002011161C21700EB5272C2F3C702184B1F
:100400001A701946097801EB4102C2EBC1114FF68F
:10041000FF7202EAC101114A118070471049097840
:100420004143491E4FF0E022516101219161114683
:10043000096941F00101116100BF4FF0E021096934
:1004400001F480310029F8D04FF0E021096921F052
:1004500001014FF0E0221161704700000A00002006
:100460000C00002010B50446012C04D0022C09D049
:10047000032C17D10EE00020FB4908600A20FFF78B
:10048000CDFF10E00020F849143908600A20FFF77A
:10049000C5FF08E00020F449103908600A20FFF782
:1004A000BDFF00E000BF00BF10BD10B50446012C29
:1004B00004D0022C09D0032C17D10EE00120EA4908
:1004C00008600A20FFF7AAFF10E00120E64914396E
:1004D00008600A20FFF7A2FF08E00120E249103976
:1004E00008600A20FFF79AFF00E000BF00BF10BDC0
:1004F00010B50446012C04D0022C10D0032C2CD1B2
:100500001CE00120D9490860C820FFF787FF0020C0
:10051000D749C1F8A801C820FFF780FF1EE00120DD
:10052000D24918390860C820FFF778FF0020D04969
:10053000C1F89001C820FFF771FF0FE00120CB49FF
:1005400014390860C820FFF769FF0020C849C1F8C6
:100550009401C820FFF762FF00E000BF00BF10BD9C
:1005600070B505460C46012D7ED1042C36D004DC36
:10057000012C07D0022C75D11AE0082C44D0102C85
:1005800070D157E00020B8491C3908600A20FFF7F5
:1005900045FF0020B749C1F884010A20FFF73EFF5C
:1005A0000020B1490C3908600A20FFF737FF5AE0F4
:1005B0000120AD491C3908600A20FFF72FFF0020F9
:1005C000AC49C1F884010A20FFF728FF0020A649A2
:1005D0000C3908600A20FFF721FF44E00020A249FF
:1005E0001C3908600A20FFF719FF0120A149C1F852
:1005F00084010A20FFF712FF00209B490C39086094
:100600000A20FFF70BFF2EE0012097491C390860F4
:100610000A20FFF703FF01209649C1F884010A2050
:10062000FFF7FCFE002090490C3908600A20FFF714
:10063000F5FE18E001208C491C3908600A20FFF7FC
:10064000EDFE01208B49C1F884010A20FFF7E6FE88
:10065000012085490C3908600A20FFF7DFFE02E01F
:1006600002E0FFE700BF00BF022D7ED1042C36D090
:1006700004DC012C07D0022C75D11AE0082C44D0E0
:10068000102C70D157E0002078490C3908600A20FE
:10069000FFF7C4FE00207749C1F894010A20FFF754
:1006A000BDFE00207049083908600A20FFF7B6FE39
:1006B0005AE001206D490C3908600A20FFF7AEFEB0
:1006C00000206C49C1F894010A20FFF7A7FE002022
:1006D0006549083908600A20FFF7A0FE44E00020C1
:1006E00062490C3908600A20FFF798FE0120614931
:1006F000C1F894010A20FFF791FE00205A490839F9
:1007000008600A20FFF78AFE2EE0012057490C39C5
:1007100008600A20FFF782FE01205649C1F89401C3
:100720000A20FFF77BFE00204F49083908600A20A5
:10073000FFF774FE18E001204C490C3908600A20CC
:10074000FFF76CFE01204B49C1F894010A20FFF726
:1007500065FE01204449083908600A20FFF75EFE63
:1007600002E002E0FFE700BF00BF032D7AD1042CB6
:1007700036D004DC012C07D0022C7DD11AE0082CE5
:1007800044D0102C78D157E0002037493C3908601C
:100790000A20FFF743FE00203649C1F8A4010A20D1
:1007A000FFF73CFE00203049091F08600A20FFF7D0
:1007B00035FE62E001202C493C3908600A20FFF731
:1007C0002DFE00202B49C1F8A4010A20FFF726FEC8
:1007D00000202549091F08600A20FFF71FFE4CE092
:1007E000002021493C3908600A20FFF717FE01204C
:1007F0002049C1F8A4010A20FFF710FE00201A4981
:10080000091F08600A20FFF709FE36E0012016499B
:100810003C3908600A20FFF701FE01201549C1F8A4
:10082000A4010A20FFF7FAFD00200F49091F086004
:100830000A20FFF7F3FD20E001200B493C39086056
:100840000A20FFF7EBFD01200A49C1F8A4010A20A4
:10085000FFF7E4FD01200449091F08600A20FFF7A3
:10086000DDFD0AE00AE007E0BC812142A801214247
:10087000000021420080214200BF00BF70BD70B562
:1008800005460C46012D0DD1012C01D1DA49086035
:100890000A20FFF7C3FD14B90020D74908600A20D9
:1008A000FFF7BCFD022D10D1012C03D10120D2494C
:1008B000091D08600A20FFF7B1FD1CB90020CE49D0
:1008C000091D08600A20FFF7A9FD032D10D1012C96
:1008D00003D10120C849243108600A20FFF79EFD9A
:1008E0001CB90020C449243108600A20FFF796FD96
:1008F00070BD2DE9F04104460F4615460120FFF773
:10090000B1FD39460120FFF72BFE29460120FFF7F4
:10091000B6FF002607E00120FFF7EAFD4FF47A70EA
:10092000FFF77CFD761CA642F5DB0120FFF7BDFD3D
:10093000BDE8F0812DE9F04104460F46154602203E
:10094000FFF790FD39460220FFF70AFE29460220F4
:10095000FFF795FF002607E00220FFF7C9FD4FF4DF
:10096000FA70FFF75BFD761CA642F5DB0220FFF76D
:100970009CFDBDE8F0812DE9F04104460F46154687
:100980000320FFF76FFD39460320FFF7E9FD2946F5
:100990000320FFF774FF002607E00320FFF7A8FD00
:1009A0004FF4FA70FFF73AFD761CA642F5DB032000
:1009B000FFF77BFDBDE8F08170B504462046FFF7E8
:1009C00051FD04212046FFF7CBFD01212046FFF712
:1009D00056FF00251BE02046FFF78AFD4FF4FA7012
:1009E000FFF71CFD012C04D183486838006800B96A
:1009F00010E0022C03D18148006800B90AE0032C02
:100A000004D17E48001D006800B903E06D1CB5F5F7
:100A1000FA5FE0DB00BF2046FFF747FD70BD2DE920
:100A2000F04F85B000240025002600274FF0010874
:100A30004FF001094FF0010AA346002004900390F3
:100A40000290019000906EA16E4800F063FF0028B4
:100A50007ED06BA16B4800F05DFF0446E0782C2847
:100A600077D1207A2C2874D1607B2C2871D1A07C7E
:100A70002C286ED1607D2C286BD1207E2C2868D14B
:100A8000E07E2C287FD1607F2C287CD1E07F2C2831
:100A900079D194F82100232875D1207930384FF48A
:100AA0007A7148436179303901EBC10202EB0111DF
:100AB00000EB8101A079303800EB800001EB4001B0
:100AC000E07930380D18607A30384FF47A71484345
:100AD000A17A303901EBC10202EB011100EB810177
:100AE000E07A303800EB800001EB4001207B3038A9
:100AF0000E18A07B30384FF47A714843E17B3039CF
:100B000001EBC10202EB011100EB8101207C3038C6
:100B100000EB800001EB4001607C30380F18207D35
:100B20003038E17C303901EB810100EB4108E07D98
:100B30003038A17D303901EB810100EB4109A07E05
:100B40003038617E303901EB810100EB410A01E070
:100B50001CE018E0207FA0F1300BA07F303804901B
:100B600094F82000303803905A4641462846FFF753
:100B7000C0FE49463046049AFFF7DCFE514638462F
:100B8000039AFFF7F8FE01201F4908701FA11D48B6
:100B900000F0C0FE68B31DA11A4800F0BBFE044679
:100BA000E0792C2822D1607A2C281FD1E07A2C28D9
:100BB0001CD1607B232819D1207A30380290A07A8A
:100BC00030380190207B303800900298012801D104
:100BD000FFF7F2FE0198012802D10220FFF7ECFE98
:100BE0000098012802D10320FFF7E6FE0120064904
:100BF000087005B0BDE8F08F8001214218812142C4
:100C0000405A5A002400002000000020405A5A494F
:100C10004E49540008B50121102000F055FB012178
:100C2000082000F051FB0121042000F04DFB40F2B0
:100C3000B360ADF8000010208DF8030003208DF89C
:100C400002006946154800F0A3F84FF62370ADF88E
:100C5000000010208DF8030003208DF80200694683
:100C60000F4800F095F84020ADF8000048208DF8BE
:100C7000030003208DF802006946084800F088F858
:100C8000C020ADF8000048208DF8030003208DF847
:100C900002006946024800F07BF808BD00080140E8
:100CA000000C0140704700BFFEE700BFFEE700BF39
:100CB000FEE700BFFEE770477047704770470000CF
:100CC00010B50446C649601A8C422FD009DCC548CD
:100CD000204480B1B0F5806F16D0B0F5006F4AD1D6
:100CE0001BE0B0F5806F2AD0B0F5006F30D0B0F5C2
:100CF000406F40D135E00121042000F0FFFA0021CF
:100D0000042000F0FBFA37E00121082000F0F6FA99
:100D10000021082000F0F2FA2EE00121102000F05E
:100D2000EDFA0021102000F0E9FA25E00121202051
:100D300000F0E4FA0021202000F0E0FA1CE001219C
:100D4000402000F0DBFA0021402000F0D7FA13E049
:100D50000121802000F0D2FA0021802000F0CEFA9C
:100D60000AE00121080200F0C9FA00214FF4807066
:100D700000F0C4FA00E000BF00BF10BD10B50121B3
:100D8000084600F0BBFA0021012000F0B7FA10BDC0
:100D90002DE9F04102460025002600200023002412
:100DA000002791F803C00CF00F0591F803C00CF078
:100DB000100CBCF1000F03D091F802C04CEA0505FD
:100DC00091F800C0BCF1000F31D0146800202BE076
:100DD0004FF0010C0CFA00F3B1F800C00CEA030666
:100DE0009E4220D183004FF00F0C0CFA03F7BC4356
:100DF00005FA03FC4CEA040491F803C0BCF1280F87
:100E000006D14FF0010C0CFA00FCC2F814C00AE045
:100E100091F803C0BCF1480F05D14FF0010C0CFA5A
:100E200000FCC2F810C0401C0828D1D31460B1F8EF
:100E300000C0BCF1FF0F34DD546800202EE000F14B
:100E4000080C4FF0010808FA0CF3B1F800C00CEAE6
:100E500003069E4221D183004FF00F0C0CFA03F7DA
:100E6000BC4305FA03FC4CEA040491F803C0BCF14E
:100E7000280F05D100F1080C08FA0CF8C2F814800C
:100E800091F803C0BCF1480F07D100F1080C4FF0F6
:100E9000010808FA0CF8C2F81080401C0828CED3CC
:100EA0005460BDE8F0814FF6FF710180022181702E
:100EB0000421C17070470246002093680B400BB1BB
:100EC000012000E0002070470146886880B270472A
:100ED00002460020D3680B400BB1012000E0002047
:100EE00070470146C86880B2704701617047416130
:100EF00070470AB1016100E041617047C16070470D
:100F00004FF480320A438261816182618269826921
:100F1000704702460020344B18684FF68073184023
:100F200040EA02100843304B186070472F49C861EF
:100F30007047F0B50A4600230024002100252A4E00
:100F40007168C0F3034583B200F44016B6F5401F44
:100F500008D121F07061244E766826F07066224F29
:100F60007E6012E000F48016B6F5801F06D10326DD
:100F700006FA05F4A14341F0706106E0460D360122
:100F800003FA06F6B14341F0706122B1460D360115
:100F900003FA06F63143144E7160F0BD30B50022FD
:100FA0008B071C0F0F2303FA04F20F4B08338C102E
:100FB00053F8243093430C4C08348D1044F82530FA
:100FC00023468C1053F824308C07240F00FA04F4C5
:100FD0002343054C08348D1044F8253030BD000003
:100FE0000014014000F8FEBF000001400000204254
:100FF000DE48006840F00100DC49086008464068AF
:10100000DB490840D949486008460068D94908408A
:10101000D64908600846006820F480200860084629
:10102000406820F4FE004860002088607047CF4987
:10103000096821F48031CD4A11601146096821F414
:1010400080211160B0F5803F03D0B0F5802F0ED124
:1010500006E0C649096841F48031C44A116007E0DE
:10106000C249096841F4A021C04A116000E000BFF4
:1010700000BF704710B501460022002300204A112E
:10108000012A02D1B94C236806E0022A02D1B74CEA
:10109000236A01E0B54C636A01F01F020124944009
:1010A0001C400CB1012000E0002010BD38B500202C
:1010B00000900024002500BF3120FFF7DBFF05462C
:1010C0000098401C00901DB90098B0F5A06FF3D1B6
:1010D0003120FFF7CFFF08B1012400E000242046B3
:1010E00038BD01460020A14A106820F0F80040EA0F
:1010F000C10010607047A049086070470246002098
:101100009A4B586820F47C1042EA01031843974B2D
:101110005860704798490866704701460020934A16
:10112000506820F003000843506070478F484068C3
:1011300000F00C007047014600208C4A506820F0F7
:10114000F00008435060704701460020874A50680D
:1011500020F4E06008435060704701460020834A55
:10116000506820F4605040EAC1005060704729B1D7
:101170007E4A527A02437D4B5A7204E07B4A527A8D
:1011800082437A4B5A7270477B49D8310860704766
:1011900001460020754A506820F4404008435060E2
:1011A00070470021714A20321170704A82F8201075
:1011B000012802D004280AD104E001216B4A203220
:1011C000117005E00521694A2032117000E000BF6E
:1011D00000BF70476949086070476449096A014364
:1011E000624A11627047654944390860704730B5FA
:1011F00000210022002400235C4D6D6805F00C01E5
:1012000021B1042905D0082923D105E05C4D0560F2
:1012100022E05B4D05601FE0544D6D6805F47012CF
:10122000022505EB9242514D6D6805F480341CB9DE
:10123000544D554305600BE04C4D6D6805F4003589
:101240001DB1504D5543056002E04D4D55430560BD
:1012500002E04B4D056000BF00BF444D6D6805F0D6
:10126000F0010909484D6B5C0568DD4045603F4D64
:101270006D6805F4E061090A434D6B5C4568DD402B
:1012800085603A4D6D6805F46051C90A3E4D6B5C4E
:101290004568DD40C560354D6D6805F44041890BFA
:1012A0003A4D6B5CC568B5FBF3F5056130BD29B1FE
:1012B0002E4A526902432D4B5A6104E02B4A52696F
:1012C00082432A4B5A61704729B1284A92690243E6
:1012D000264B9A6104E0254A92698243234B9A6126
:1012E000704729B1214AD2690243204BDA6104E0F8
:1012F0001E4AD26982431D4BDA61704729B11B4AED
:10130000D2680243194BDA6004E0184AD26882437B
:10131000164BDA60704729B1144A12690243134B25
:101320001A6104E0114A12698243104B1A61704736
:1013300012494039086070470F49C86470470B492B
:10134000C87170470948406A40F080700749486298
:10135000704701460020054A92680A400AB1012000
:1013600000E0002070470149887270470010024079
:101370000000FFF8FFFFF6FE0000424280044242F8
:1013800000127A0000093D000D0000201D00002021
:1013900010B50446D749601A8C422BD006DCD648DB
:1013A000204498B1B0F5806F38D119E0B0F5806F66
:1013B0002AD0B0F56C4F31D101218803FFF79EFF91
:1013C00000214FF48040FFF799FF28E001214804F5
:1013D000FFF7A1FF00214FF40030FFF79CFF1EE054
:1013E00001218804FFF797FF00214FF48020FFF7C9
:1013F00092FF14E00121C804FFF78DFF00214FF494
:101400000020FFF788FF0AE001210805FFF783FFAE
:1014100000214FF48010FFF77EFF00E000BF00BF07
:1014200010BD2DE9F04786B005460E460024A246C1
:1014300000BF00BF00272F462C8A4CF6FF700440E7
:10144000F08804432C82AC894EF6F3100440B08837
:1014500031890843718908430443AC81AC8A4FF653
:10146000FF400440B0890443AC8201A8FFF7BFFEEF
:10147000A248874202D1DDF810A001E0DDF80CA0FF
:101480000AEBCA0000EB0A1031688900B0FBF1F8E2
:101490006420B8FBF0F004012009642101FB1089ED
:1014A000322000EB0910B0FBF1F000F00F00044314
:1014B0002C8106B0BDE8F0874FF416510160002181
:1014C0008180C18001810C2141810021818170478F
:1014D00010B502460020108A4FF2FF0318400B8817
:1014E0004C8823438C882343CC88234318431082A1
:1014F00010BD0021018041808180C180704721B1F1
:10150000828942F40052828104E082894DF6FF73A1
:101510001A4082817047F0B503460024002600255A
:1015200000201846C1F3421401F01F06012707FAF4
:1015300006F5012C01D10C3004E0022C01D1103051
:1015400000E014301AB107682F43076002E0076813
:10155000AF430760F0BD1AB1838A0B43838202E078
:10156000838A8B4383827047028A4FF6F0731A4056
:101570000282028A0A430282704782894FF2FF7315
:101580001A40828182890A438281704721B182890F
:1015900042F00202828104E082894FF6FD731A4014
:1015A00082817047028A4FF6DF731A400282028AF4
:1015B0000A430282704721B1028A42F480420282C9
:1015C00004E0028A4BF6FF731A4002827047C1F3AF
:1015D00008028280704701468888C0F3080070477F
:1015E000818941F0010181817047028BD2B202836F
:1015F000028B42EA012202837047028B02F47F428F
:101600000283028B0A430283704721B1828A42F02F
:101610002002828204E0828A4FF6DF731A408282BF
:10162000704721B1828A42F01002828204E0828AED
:101630004FF6EF731A408282704721B1828A42F0DE
:101640000802828204E0828A4FF6F7731A4082828F
:101650007047828A4FF6FB731A408282828A0A435D
:101660008282704721B1828A42F00202828204E0C3
:10167000828A4FF6FD731A4082827047024600202C
:1016800013880B400BB1012000E000207047CA43D3
:101690000280704770B502460B46002400210025E9
:1016A0000020C3F3421503F01F01012606FA01F1E1
:1016B000012D02D19689314006E0022D02D1168A11
:1016C000314001E0968A31401C12012606FA04F4EA
:1016D0001688344011B10CB1012000E0002070BD2B
:1016E00010B5002200230A1201249440A3B2DC4367
:1016F000048010BD004C004000BCFFBF003801401A
:1017000031490143314A1160704770B5002100230F
:101710000F22C47804B32D4C246804F4E064C4F5AB
:10172000E064210AC1F10403CA40447804FA03F1D9
:101730008478144021430901254C0678A15504788A
:1017400004F01F050124AC4005786D11AD0005F1D2
:10175000E025C5F8004109E0047804F01F050124E4
:10176000AC401C4D0678761145F8264070BD1A4AEB
:101770000A400243154B1B1F1A60704739B1134AC8
:10178000121D12680243114B1B1D1A6006E00F4A1E
:10179000121D126882430D4B1B1D1A6070470428EE
:1017A00008D14FF0E021096941F004014FF0E02237
:1017B000116107E04FF0E021096921F004014FF0C9
:1017C000E0221161704700000000FA050CED00E016
:1017D00000E400E080E100E080FFFF1F0CB5002086
:1017E000019000904748006840F480304549086007
:1017F00000BF4448006800F4003000900198401C8D
:101800000190009818B90198B0F5A06FF1D13D484A
:10181000006800F4003010B10120009001E00020C9
:1018200000900098012844D13748006840F010002B
:10183000354908600846006820F003000860084643
:10184000006840F0020008602E4840682D4948605A
:101850000846406848600846406840F48060486038
:101860000846406820F47C1048600846406840F410
:10187000E81048600846006840F08070086000BFCB
:101880002048006800F000700028F9D01D4840682A
:1018900020F003001B4948600846406840F0020001
:1018A000486000BF1748406800F00C000828F9D1D4
:1018B00001E000BFFEE70CBD10B5FFF78FFF10BDC4
:1018C00010B51048006840F001000E490860084655
:1018D00040680E4908400B494860084600680C49BA
:1018E0000840084908600846006820F48020086025
:1018F0000846406820F4FE00486000208860FFF73A
:10190000DBFF10BD00100240002002400000FFF885
:10191000FFFFF6FE30B505462A460B4612F8010BCE
:1019200013F8014B08B1A042F8D01CB1002802D036
:101930006D1CF1E7284630BD064C074D06E0E06817
:1019400040F0010394E8070098471034AC42F6D306
:10195000FEF7F2FB7C1900089C19000802E008C899
:10196000121F08C1002AFAD170477047002001E019
:1019700001C1121F002AFBD1704700009C1900080A
:1019800000000020240000005C190008C0190008B5
:1019900024000020CC0200006C19000800000000A8
:1019A0000000000000000000000000000001020331
:1019B00004010203040607080902040608000000E7
:0400000508000147A7
:00000001FF
